:03000000020027D4
:100027007581E0C2AFD280D281C291D2921201CC47
:100037001201899001EE740093B40D0302004D1272
:100047000171A302003D74401201AA7435120171B7
:1000570074301201717525007526501200877525B9
:10006700001200CB74491201AAE526C4540F1201ED
:10007700E3120171E526540F1201E312017180DECC
:10008700C281C28074A0120120D281D280000020D8
:1000970081EEC2800000E525120120D281D28000C6
:1000A700002081DCC2800000E526120120D281D227
:1000B7008000002081CAC2800000C281D280D28124
:1000C7001201CC22C281C28074A0120120D281D237
:1000D7008000002081EEC2800000E525120120D2B9
:1000E70081D28000002081DCC2800000D280C281E2
:1000F700C28074A1120120D281D28000002081C465
:10010700C2800000120136F526D281D280C280C299
:1001170081D280D2811201CC22C0027A0833928127
:100127000000D2800000C2800000DAF1D00222C0B5
:10013700027A08D2800000A281C280000033DAF37D
:10014700D00222C083C082900000A3E5824583705D
:10015700F9D082D08322F5F054F0F5901201B0E582
:10016700F0C454F0F5901201B022F5F054F0D2E04B
:10017700F5901201B0E5F0C454F0D2E0F590120109
:10018700B022C290743312015D743212015D74287B
:1001970012015D740112015D740212015D740F1288
:1001A700015D22D2E712015D22D2921201BBC292F7
:1001B7001201BB22C007C0067E057FFFDFFEDEFA05
:1001C700D006D00722C083C082C0E0900000A3E51C
:1001D70082458370F9D0E0D082D08322B40A0050E0
:1001E70003243022243722575249544520202052D5
:0401F7004541440D2D
:00000001FF
